:100D2500696E742E2E0D0A00696E7420656E642E30
:050D35002E2E0D0A0046
:100CBC00C297120D4D120CF47BFF7A0D7925120D93
:0D0CCC003A120B857BFF7A0D792D020D3A4F
:100BBE00120CBC755A017B1E7A007D01E4FF120CEB
:100BCE0022755A017B2C7A017D017F02120C22754F
:100BDE005A017B017A007D017F04120C22120D6DE9
:050BEE0012080080FB6D
:100CF400759850438920758DFD758BFDD28EC29FEA
:090D0400D29ED29CD2AFD2AC22E7
:0C0D8700C2AC8F993099FDC299D2AC2209
:100D3A00120B3FFF600C120D87740129F9E43AFA8D
:030D4A0080EE2216
:0A0BF3008B5B8A5C895D8C5E8D5F70
:100BFD00E4FDFCC3ED955FEC955E5018AB5BAA5C14
:100C0D00A95D8D828C83120B58FF120D870DBD00CF
:040C1D00010C80DF67
:010C210022B0
:03002300020C507C
:0B0C5000C0E0C0D075D000C000C0079D
:100C5B00C298AF99743E253DF8A607053DE53DD3F7
:070C6B0094134003753D00E6
:090C7200D007D000D0D0D0E03250
:0C0D6D007F14783EE4F608DFFCE4F53D5E
:010D79002257
:100D4D00758901758CE8758AE8D2AFD2A9D28C224B
:03000B00020C7B69
:100C7B00C0E0C0F0C083C082C0D075D008758CE8CE
:100C8B00758AE8120AA3D0D0D082D083D0F0D0E0FE
:010C9B003226
:100D5D00438910758D55758B55D2AFD2ABD28E227E
:03001B00020D9340
:070D9300758D55758B55327B
:0D0D7A0075CBD875CAF0D2ADD2AFD2CA2267
:03002B00020C9C28
:100C9C00C0E0C0F0C083C082C0D075D008C2CF63A2
:100CAC0090FF120AA3D0D0D082D083D0F0D0E03203
:100D0D0074292FF806E6C394FF400674292FF8E4E2
:080D1D00F674332FF8E4F6220E
:100AA300E4FF74382FF8E664017030EF25E0241F6B
:100AB300F80806E618700106EF25E02415F8E6FCB1
:100AC30008E6FDEF25E0241FF8E6FA08E6D39DEAE1
:100AD3009C401874332FF87601800674332FF8E4A2
:0F0AE300F6EF25E0241FF8E4F608F60FBF05B381
:010AF20022E1
:100B8500E4FF74102FF8E4F6EF25E0241FF8E4F6EF
:100B950008F674332FF8E4F674382FF8E4F6742960
:100BA5002FF8E4F6742E2FF8E4F6EF25E02415F877
:080BB500E4F608F60FBF05CAC3
:010BBD002215
:100C220074102FF8A607EF25E02415F8A60208A6EF
:100C32000374382FF8A605742E2FF8A65AEF25E074
:0E0C4200241FF8E4F608F674292FF8E4F622D1
:100AF300554E4C4F434B0D0A004556454E545F4CE3
:100B03004F434B45525F44414F4A495348490D0AAD
:100B1300006F70656E206C6F636B65722035730DAB
:100B23000A00756E6C6F636B0D0A006C6F636B0D5F
:0C0B33000A003F065B4F666D7D077F6F78
:030D9A00016000F5
:10080000E4F55274382552F8E66401600221107450
:10081000332552F8E6640160022110742E2552F847
:10082000E6FF74292552F8E6C39F40022110AF521B
:10083000120D0D74102552F8E61460331460411443
:10084000605114700221032404600221317B007A7C
:1008500000793E120D3A7B007A00793E12093D1272
:100860000D6D755A017B147A007D01E4FF801F75C0
:100870006001120CD97BFF7A0A79F3120D3A21310B
:10088000120CD9755A017B2C7A017D017F02120C62
:1008900022213174352562F582740B3561F583E4CC
:1008A00093F5804390015390F9C291E5621562700F
:1008B000021561C3E56294FFE5616480947F502472
:1008C000756100756207755A017B017A007D017FB1
:1008D00004120C22E4F55AFBFAFD7F03120C22E409
:1008E000F560801A7BFF7A0A79FC120D3A755A017D
:1008F0007BC87A007D017F03120C22756001120C07
:10090000D9802E7580404390015390F9C291802187
:1009100074382552F8E6B40118742E2552F8E6FF13
:1009200074292552F8E6C39F400774382552F8E42D
:0C093000F60552E552C394055002010385
:01093C002298
:10093D008B538A548955E53DC3940550024116E504
:10094D003D70024116AB53AA54A955120B3F645585
:10095D007056900001120B58644E704C90000212AC
:10096D000B58644C7042900003120B58644F703852
:10097D00900004120B586443702E900005120B5812
:10098D00B44B25D2977561007562077BFF7A0B79A1
:10099D0014120D3A756001120CD9755A017B017A4A
:1009AD00007D017F03120C22AB53AA54A955120BE3
:1009BD003F64547054900001120B58644F704A906C
:1009CD000002120B58644C7040900003120B5864D7
:1009DD004F7036900004120B586443702C90000534
:1009ED00120B58B44B23E4F561F562F560120CD986
:1009FD00755A017B017A007D017F04120C22E4F50A
:0A0A0D005AFBFAFD7F03120C2222AF
:100CD900E560B4010AD2977BFF7A0B79258008C2B7
:0B0CE900977BFF7A0B792E120D3A2248
:03000000020A17DA
:0C0A1700787FE4F6D8FD758162020A5E6B
:100B3F00BB010689828A83E0225002E722BBFE02B4
:090B4F00E32289828A83E49322E7
:100B5800BB010CE58229F582E5833AF583E0225052
:100B680006E92582F8E622BBFE06E92582F8E2229C
:0D0B7800E58229F582E5833AF583E49322B6
:100A2300020BBEE493A3F8E493A34003F68001F220
:100A330008DFF48029E493A3F85407240CC8C333D4
:100A4300C4540F4420C8834004F456800146F6DFA3
:100A5300E4800B0102040810204080900D9AE47E8C
:100A6300019360BCA3FF543F30E509541FFEE49398
:100A7300A360010ECF54C025E060A840B8E493A35F
:100A8300FAE493A3F8E493A3C8C582C8CAC583CA8A
:100A9300F0A3C8C582C8CAC583CADFE9DEE780BE42
:010D9D000055
:00000001FF
